:400000000080002011000000ED0D0000ED0D000008B5044B1A6803F53F5302331A6000F005FF00BFFA46004010B5054C237833B9044B13B10448AFF300800123237010BD7F
:400040007081FF1F00000000383D0000084B10B51BB108490848AFF300800848036803B910BD074B002BFBD0BDE81040184700BF000000007481FF1F383D0000C880FF1FC8
:400080000000000038B50A4B1C88FF2C0FD8094B1D7801F02FFD04EB052400F5FE401830054B23F81400024A13880133138038BDA881FF1FAA81FF1F3082FF1F0E4B1B7841
:4000C000834218D010B50C4C2070012101F00CFF207800F04BFF207801F0BCF92078431C0648184003D5013860F001000130C0B201F0BCF910BD7047CC80FF1F01000080C1
:40010000424B1B780122424B1A704249D1E90023013243F10003C1E900233F4B1B78002B72D110B53C4B5B783C4CA4FB0324A40804EB84041B1BDCB201F07AF8003018BF7D
:400140000120374B1C442071002213460AE02BB9334B13441B791BB1012302E0012300E000230132042AF2DD8BB92D4A527A72B12C4B1B7801332C4A134003D5013B63F0F8
:4001800003030133264A93720023537203E013B10122234B5A72204B5B78204CA4FB0324A40804EB84041B1BDCB200F0EFFE003018BF01201A4B1C442073002213460AE08B
:4001C0002BB9174B13441B7B1BB1012302E0012300E000230132042AF2DD63B9104A527C4AB10F4C2078B0FA80F04009FFF766FF0023637403E013B10122094B5A74064A7D
:4002000053780133537010BD704700BF274F00409081FF1FC081FF1F8C81FF1FCDCCCCCCCC80FF1F0482FF1F030000800B4B1B780B4A907A834210D010B5084B18700021DA
:4002400001F052FE074C064B9A7A0749204603F04FF9204601F01EFE10BD70470482FF1FCC80FF1F0882FF1F3C3D000038B501F0D5FD234801F00EFE01F032FE214801F0DB
:4002800065F8214801F08AF800F052FE00F05EFE01F014FC01F07CF801F024FC00F0BAFF002000F071FF00F0D9FE002000F090FE00F042FF002000F0F9FE01F019F800201A
:4002C00001F07AFE0246114DA872114C1149204603F00EF9204601F0DDFD012001F06CFEFFF7ECFE2A780C49204603F001F9204601F0D0FD094801F0CDFD62B638BD00BFEB
:40030000503D00000101000085000000CC80FF1F0882FF1F603D0000743D0000883D000008B5FFF7A3FFFF2000F02EFF4FF4FA7001F044F8002000F027FFFF2000F0B6FE20
:400340004FF4FA7001F03AF8002000F0AFFEFF2000F03EFE4FF4FA7001F030F8002000F037FE574B9B7A032B05D0564B1B78032B01D101F00DF8524B9B7A032B26D8DFE811
:4003800003F002070C11FFF751FF00F0B7F892E0FFF74CFF00F046F98DE0FFF747FF00F077F988E0474B1B78032B06D000F0EAFF00221146104600F023F9FFF737FF00F0F3
:4003C000BDFF00F085FA00F0B1FF74E000223C4B9A72FFF72BFF6EE001F02EFD542806D10122394B1A70394801F054FD63E0452806D10022344B1A70354801F04BFD5AE0B6
:40040000314B1B78002B56D04138122850D8DFE800F01F4F0A4F4F4F4F4F4F364F4F3D264F184F1144000022254B9A72294801F031FD40E00122224B9A72274801F02AFDC5
:4004400039E002221E4B9A72244801F023FD32E003221B4B9A72224801F01CFD2BE0194B1B7801331F4A134003D5013B63F003030133134A93721C4801F00CFD1BE00120C1
:40048000FFF71CFE194801F005FD14E00020FFF715FE174801F0FEFC0DE0094B1878B0FA80F04009FFF70AFE124801F0F3FC02E0114801F0EFFC01F0D5FC00288CD150E770
:4004C000CC80FF1F0482FF1F8C81FF1FAC3D0000C83D0000E43D0000F83D0000143E0000283E0000030000803C3E0000583E00006C3E00007C3E00008C3E000008B53E4BC0
:400500001B78002B76D03C4A5368013353600A2B6DD1134600225A609B68FF2B03DCD8B200F0C4FD5FE0B3F5007F0BDA33481840002803DA013860F0FF000130C0B200F062
:4005400023FE50E0B3F5407F0CDA2C481840002803DA013860F0FF000130C043C0B200F0A5FD40E0B3F5806F0BDA24481840002803DA013860F0FF000130C0B200F028FDA7
:4005800031E0B3F5A06F0CDA1C4A1A40002A03DA013A62F0FF020132D043C0B200F0F4FD21E0B3F5C06F0BDA14481840002803DA013860F0FF000130C0B200F077FD12E0A8
:4005C000B3F5E06F0CDA0D4A1A40002A03DA013A62F0FF020132D043C0B200F0F9FC02E0FF22054B9A60044A9368013393600022014B1A7008BD00BF9081FF1FFF00008054
:4006000038B50D461446064B187359739A7300F0DFFC284600F04AFD204600F0B5FD38BD9081FF1F08B5174B1B784BB3154B1B69154A82FB0312DB17C3EBA212134B83FB1A
:400640000213A3EBE27303EB4303D31A05D100221146FF20FFF7D4FF0CE0012B05D10022FF211046FFF7CCFF04E0FF2200210846FFF7C6FF034B1A6901321A6100221A7089
:4006800008BD00BF9081FF1FF11976055655555508B5104B1B78DBB10E4B5B690E4A82FB0312DB17C3EB222313F0010F05D100221146FF20FFF7A4FF04E0FF2200210846FC
:4006C000FFF79EFF034B5A6901325A6100221A7008BD00BF9081FF1FFF19D3642DE9F04F1B4BD3F800905A6899FBF2FE9B6899FBF3FC4FF0FF380026002722E0154A4FEA7B
:40070000002B0BEB030132F911A00EEB0301594432F9112002FB0AF2A41845EBE275013302E0002300240025CEF580729342E5DBA64277EB050302DAF04626462F460EF176
:40074000010EE645EDDB99FBF8F0BDE8F08F00BFE080FF1F3082FF1F70B50D46A0F1FF0240F241539A420BD94949284602F05EFC02F05EFE00221146C0B2FFF741FF70BD52
:400780000446B0F5FF7F17DA4149284602F04EFC0646A4F1FF0002F0F5FB294602F046FC02F046FEC4B2304602F042FE00222146C0B2FFF725FF70BDB0F53F7F17DCA0F5C1
:4007C000FF7002F0DFFB294602F030FC06463049284602F02BFC02F02BFEC4B2304602F027FE00222146C0B2FFF70AFF70BDB0F57F7F17DA2649284602F018FC0646A4F247
:40080000FD2002F0BFFB294602F010FC02F010FEC4B2304602F00CFE2246C1B20020FFF7EFFE70BD40F2FA43984217DCA0F57F7002F0A8FB294602F0F9FB064614492846CE
:4008400002F0F4FB02F0F4FDC4B2304602F0F0FD2246C1B20020FFF7D3FE70BD40F2F953984214DCA0F2FB4002F08CFB294602F0DDFB02F0DDFDC4B20549284602F0D6FB72
:4008800002F0D6FDC2B221462046FFF7B9FE70BD00007F4310B50023194607E003EB00240A4A32F9142002FB02110133FF2BF5DD0C46002901DA01F2FF74E412204602F059
:4008C00061FB01F03FFD02F08DFD10BD3082FF1F5D4B1B8BFF2B40F2AD802DE9F0475A4B9E7E731C594A134003D5013B63F001030133554DAB7600232B833046FFF7CAFF84
:400900000446EB6903EBD372B0EB620F07DB132807DD034403EBD3735B10EB6102E0002400E00024484B1B6A9C4205DD46490C62D1E90C23C1E90A23434B9D6B651B1E2DA7
:4009400006DD1A46DB6B2B4403EBD3735B10D3633046FFF7C3FE8046284601F0E9FE06460F46394BD86B01F0E3FE33A3D3E9002301F044FF02460B463046394602F0CEF907
:4009800080B1204602F0FEFA05462F4B186A02F0F9FA0146284602F0FDFB01464046FFF7DBFE2EE0284D287B01F0C2FE24A3D3E9002301F023FF06460F46687B01F0B8FE94
:4009C0001FA3D3E9002301F019FF80468946A87B01F0AEFE1AA3D3E9002301F00FFF02F0A7F95FFA80FA4046494602F0A1F9C5B23046394602F09CF952462946C0B2FFF7F5
:400A0000FFFD11498C63D1E90C23D1E90A01121A63EB010342F210700021994208BF904206D2094AD3691C4404EBD4746410D461BDE8F087704700BFCDCCCCCCCCCCEC3FCF
:400A4000666666666666E63F9081FF1F01000080FEE700BFF0B40022174611E050F82760F3B226F0FF0608E001EB420511F812406D78A5550132013BDBB2002BF4D101377D
:400A80001D2FEBD9F0BC70470E4B1B78DBB203F007010D4A11701B090132137009220B4B1A7040230A4A137010210132117040F2012176321180163213704422054B1A70DB
:400AC000704700BFCF0100496E5800406C580040CB5A00407658004008B50A46002102F0FEFC08BD08B502F0EFFC08BD38B50024344B1C80502202331A70192502331D803F
:400B00001823314A137040F28F11023211800232137040F25721023211800232137004222A492B48FFF7DEFF06222A4B1A705222A3F580731A70284B1B78DBB2274A1370F2
:400B40004FF4E162264B1A8041F25122023B1A800CE0244B1B7803F0010343EA440404F003044FF4F07001F03BFA013D0DB1032CEFD115B90320FFF76BFF1B4A4FF4807372
:400B8000138007231370002318490B704820023108701370053213700222154B1A7004220A331A70134A137843F00F031370013A137843F001031370013A137843F08003FF
:400BC000137038BD8040004086400040D404004800410040004300400F010049A14600402242004025420040044000400640004001400040A2430040012814D810B44000BF
:400C0000C0B2094B53F820101A18147C0A7822430A700130C0B253F820201844017C13780B43137010BC7047A03E0000012816D810B44000C0B20A4B53F820101A18147C6D
:400C40000A7822EA04020A700130C0B253F820201844017C137823EA0103137010BC7047A03E0000012808D8044B03EB800252691844017F13780B4313707047A03E00008F
:400C8000012809D8054B03EB800252691844017F137823EA01031370704700BFA03E000038B572B63B4A137843F00403137000240BE0394863001A19510001440A46898C5D
:400CC000106AFFF709FF0134E4B2062CF1D900240BE03149A3001819420088180622016DC06CFFF7FFFE0134E4B2002CF1D02B494FF09040FFF7AEFE0A24294B1C70294A43
:400D0000137843F0020313701032137843F002031370254D2B7843F040032B70A2F58632513A137843F01003137022461F492048FFF7D8FE22461F491F48FFF7D3FE224627
:400D40001E491F48FFF7CEFE08221E491E48FFF7C9FE08221D491E48FFF7C4FE08221D491D48FFF7BFFE1D4A137843F0080313701B4C61232370FFF7B9FE812323700122A1
:400D8000184B1A70FFF780FE0E2229461648FFF7A9FE38BDE8460040A03E0000780000488358004003500140A04300409804004800510040A4040048C0510040B0040048B3
:400DC000F0510040BC04004812510040C404004822510040CC04004832510040224300400048004004000840B043004008B502F03FFB03680C2B00D1FEE7FEE708B5094B46
:400E00001A681044084BC31A802B02DC054B186005E002F02DFB0C2303604FF0FF32104608BD00BFEC80FF1F4086FF1F08B5104E104D16E029686B68AC68002204E051F8DD
:400E4000040B43F8040B0432A242F8D1E868002203E0002143F8041B04328242F9D11035013E002EE6D102F009FBFFF759FAFEE7010000005C3F000008B5104A104B1A608D
:400E8000104A136843F40073136000230AE0032B03D80D4A52F8231000E00C490C4A42F8231001332F2BF2D90A4B1A780A4B1A70074A0A4B1A60FFF7F3FE08BD0004FA0570
:400EC0000CED00E014ED00E000000000ED0D00000080FF1FBC760040C080FF1F08ED00E0084A137843F060031370A2F5A652133A137843F0020313701032137843F00203DE
:400F00001370704777580040054B1A7802F0FC021A701A7800F0030010431870704700BF5A58004008B50120FFF7EEFF08BD00BF08B5054B1B7823B90122034B1A70FFF792
:400F4000F1FFFFF7CDFF08BDD081FF1F10B5002404E02046FFF76AFE0134E4B2012CF8D9FF22014B1A7010BDF080FF1F10B50446054B1878FF2801D0FFF758FE2046FFF750
:400F80003BFE014B1C7010BDF080FF1F024B1878C0F34000704700BF01510040084A137843F0040313701032137843F00403137002F66532137843F001031370704700BF7F
:400FC000A3430040014B1880704700BF1C4F0040014B1880704700BF1E4F0040014B1870704700BF1B4F004008B5194A137843F0020313700232137803F08F0343F01003DB
:401000001370144B1A7802F0CF021A701A7842F030021A701A7802F0F0021A701A7842F00F021A70FF20FFF7CDFF0020FFF7D0FF0020FFF7D3FF084A137843F004031370C8
:4010400002F67632137843F00103137008BD00BF184F0040234F0040A343004008B5054B1B7823B9FFF7C0FF0122024B1A70FFF795FF08BDD181FF1F084A137843F0020389
:4010800013701032137843F00203137002F65932137843F001031370704700BFA3430040014B1880704700BF104F0040014B1880704700BF124F0040014B1870704700BF83
:4010C0000F4F004008B5194A137843F0020313700232137803F08F0343F010031370144B1A7802F0CF021A701A7842F030021A701A7802F0F0021A701A7842F00F021A70C2
:40110000FF20FFF7CDFF0020FFF7D0FF0020FFF7D3FF084A137843F00203137002F66A32137843F00103137008BD00BF0C4F0040174F0040A343004008B5054B1B7823B929
:40114000FFF7C0FF0122024B1A70FFF795FF08BDD281FF1F084A137843F0010313701032137843F00103137002F64D32137843F001031370704700BFA3430040014B1880A6
:40118000704700BF044F0040014B1880704700BF064F0040014B1870704700BF034F004008B5194A137843F0020313700232137803F08F0343F010031370144B1A7802F005
:4011C000CF021A701A7842F030021A701A7802F0F0021A701A7842F00F021A70FF20FFF7CDFF0020FFF7D0FF0020FFF7D3FF084A137843F00103137002F65E32137843F02A
:401200000103137008BD00BF004F00400B4F0040A343004008B5054B1B7823B9FFF7C0FF0122024B1A70FFF795FF08BDD381FF1F024B187800F00100704700BFF1510040A2
:40124000084A137843F0080313701032137843F00803137002F67132137843F001031370704700BFA3430040014B1870704700BF274F0040014B1880704700BF284F0040B5
:40128000014B1880704700BF2A4F004008B5154A137803F0010313700232137803F0FC031370114B1A7802F0CF021A701A7842F030021A701A7802F0F0021A701A7842F047
:4012C0000F021A70094A137843F0010313703B20FFF7D0FF3B20FFF7D3FF0820FFF7C4FF08BD00BF244F00402F4F0040254F004008B5054B1B7823B9FFF7C8FF0122024B45
:401300001A70FFF79DFF08BDD481FF1F024B1B68C3F89000704700BF08ED00E04001C0B2014B1870704700BF14E400E04FF48012014B1A60704700BF00E100E04FF4801277
:40134000014B1A60704700BF80E100E010B50446FFF7F4FF2046FFF7D9FF0720FFF7DEFFFFF7E4FF10BD00BF014B1B681864704708ED00E04001C0B2014B1870704700BF91
:4013800000E400E00122014B1A60704700E100E00122014B1A60704780E100E010B50446FFF7F6FF2046FFF7DFFF0720FFF7E2FFFFF7E8FF10BD00BF01BE704710B5044607
:4013C00005E0084B186800F00BFEA4F50044B4F5004FF6D8034B586800FB04F000F000FE10BD00BFF480FF1F08B5034B1B7A00FB03F000F0F5FD08BDF480FF1F70B504465A
:401400000E46074B1D681F2802D90020FFF7D4FF04F01F04103455F8240045F8246070BD08ED00E038B504460D46072902D90020FFF7C2FF1F2C02D90020FFF7BDFF04F08F
:401440001F0000F1604000F564406D01EDB2057038BD00BF044A137803F0FB03800000F00400184310707047F0510040044A137803F0DF03400100F020001843107070470B
:40148000F051004038B59DF81040651EEDB2032D51D8013809282ED8DFE800F0052D2D052D2D0F192D230F2B03D92548007840B222E02448007840B21EE00F2B03D92248BE
:4014C000007840B218E02148007840B214E00F2B03D91F48007840B20EE01E48007840B20AE00F2B03D91C48007840B204E01B48007840B200E0002001EB401101FB02F272
:40150000D20B91B20D2B0BD8C3F10E0192B20A4191B2621E124800EB82020133937005E0631E0F4A02EB83030F229A70013C0C4B23F8241038BD0020FFF73EFF38BD00BF0F
:40154000180100491C010049190100491D0100491A0100491E0100491B0100491F010049D881FF1FF8B5074600F042FD06460D4D2B7843F003032B700B4C237843F0030357
:4015800023700A4B1F700320FFF72EFF2B7803F0FC032B70237803F0FC032370304600F02BFDF8BDF8460040F946004092580040F8B504460022C14B1A7401285DD1382250
:4015C000BF4B1A70042202331A70062201331A70002501331D7001331D703F2201331A7002331D7001331D7001331D7001260A331E70502203F527631A700A2201331A7028
:401600002C2201331A7001331D70442203331A70482201331A7001331E70022702331F70122201331A70282201331A70EB2201331A705220FFF796FF5822A24B1A700133F9
:401640001D70052205331A7001331F7001331D7001331D70284600F09BFA43F233329A4B1A603146304600F0B7FA3146082000F037FB96491D20FFF7C1FE022C5DD13822ED
:401680008F4B1A70042202331A70062201331A70002501331D7001331D703F2201331A7002331D7001331D7001331D7001260A331E70502203F527631A70272201331A707A
:4016C0002C2201331A7001331D70552203331A705A2201331A70052701331F7002331E70112201331A70192201331A70972201331A704420FFF736FF5822724B1A70013315
:401700001D7005331F70022201331A7001331D7001331D70284600F03BFA4FF47A426A4B1A603146384600F057FA3146252000F0D7FA67491D20FFF761FE032C5DD1382284
:401740005F4B1A70042202331A70062201331A70002501331D7001331D703F2201331A7002331D7001331D7001331D7001260A331E70502203F527631A70272201331A70E9
:401780002C2201331A7001331D70552203331A705A2201331A70052701331F7002331E70112201331A70192201331A70972201331A704420FFF7D6FE5822424B1A700133E5
:4017C0001D7005331F70022201331A7001331D7001331D70284600F0DBF94FF47A423A4B1A603146384600F0F7F93146252000F077FA38491D20FFF701FE042C5DD13822A4
:401800002F4B1A70042202331A70062201331A70002401331C7001331C703F2201331A7002331C7001331C7001331C7001250A331D70502203F527631A70272201331A7060
:401840002C2201331A7001331C70552203331A705A2201331A70052601331E7002331D70112201331A70192201331A70972201331A704420FFF776FE5822124B1A700133B8
:401880001C7005331E70022201331A7001331C7001331C70204600F07BF94FF47A420A4B1A602946304600F097F92946252000F017FA09491D20FFF7A1FDF8BDD881FF1F73
:4018C000004E0040945800403086FF1F611B0000651B0000691B00006D1B00002DE9F04182B0394D4FF0010885F80080374E00247474102000F05EF9102000F0DFF90721E6
:401900001D20FFF78FFD0427314B1F7001331C7007331C702F4A137843F0180313702E4B1C7003F2F5231C7001331C700A22A3F209331A7001331C7002331C705B2205333C
:401940001A705E2201331A7004331C701422A3F68C231A70CDF8008010234FF4004248F6F0510220FFF78EFD0223009310234FF4004249F2DA012046FFF784FD0323009399
:4019800010234FF4004249F2DA012046FFF77AFD009710234FF4004249F2DA012046FFF771FD2B78013B06EB83039A780B4B1A702B78013B36F82320094B1A802878FFF73B
:4019C000F7FD02B0BDE8F0810481FF1FD881FF1F96580040075B0040935800400E4E00400C4E004070B500F003FB06462A4B1B782A4B1A7842F001021A701A7842F01002DD
:401A00001A7010331A7842F001021A701A7842F010021A70224D2B7843F002032B70214C237843F0020323701F4A137843F0030313700320FFF7D8FC2B7803F0FD032B70A2
:401A4000237803F0FD032370184A137843F0060313707A22164B1A70164A137843F0010313701032137843F0010313700F3A137843F0010313701032137843F001031370D1
:401A80004FF000530C4A1360A2F5C0721360304600F0B2FA70BD00BF0481FF1FAA430040F8460040F9460040915800407758004082580040A143004080E200E008B5084BFC
:401AC0009B7C4BB9064BDB7C13F0FF0F01D1FFF705FF0122024B9A74FFF784FF08BD00BFD881FF1F024A137843F0010313707047004E0040154B1B7803F00303012B07D887
:401B0000134B1888023B1B889BB243EA004013E0022B0AD10E4B1888023B1B7843EA00430C4A107843EA002006E00B4B188883B2074A108843EA0040084B1B7C13F0FF0F4C
:401B400002D00022054B5A74704700BF144E0040124E0040114E0040104E0040D881FF1F704700BF704700BF704700BF704700BF10B5002404E02046FFF782F80134E4B2A1
:401B8000012CF8D9FF22014B1A7010BD0581FF1F10B50446FFF7ECFF2046FFF763F8014B1C7010BD0581FF1F014B188880B2704780400040034B1A7800F0F8001043187057
:401BC000704700BF82400040024B187800F00700704700BF8240004070B505460E46FFF7F3FF0446FFF7E0FFA84256D02B4B1B7803F0010294B900B185B938B9284B1D800A
:401C0000284A137803F0BF03137070BD254A137843F040031370224B1D8070BD22B3002321490B7001240F310C7004310B700C390B7803F07F030B701A4B1B7813F0080FE0
:401C400000D08DB9194B18800721013B1970164B1B7813F0010FFAD110490B7803F0FE030B700021104B19700C4B1B7813F0010F0DD00E4B1D800EB1032200E001220A4B37
:401C80001A70094B1B7813F0010FFAD170BD044B1D8002490B7813430B7070BDA243004080400040824000400140004002400040014B188880B2704700410040034B1A7890
:401CC00000F0F80010431870704700BF02410040024B187800F00700704700BF0241004070B505460E46FFF7F3FF0446FFF7E0FFA84256D02B4B1B7803F0010294B900B183
:401D000085B938B9284B1D80284A137803F0BF03137070BD254A137843F040031370224B1D8070BD22B3002321490B70012413310C7004390B7008390B7803F07F030B70AA
:401D40001A4B1B7813F0080F00D08DB9194B18800721013B1970164B1B7813F0010FFAD110490B7803F0FE030B700021104B19700C4B1B7813F0010F0DD00E4B1D800EB1A1
:401D8000032200E001220A4B1A70094B1B7813F0010FFAD170BD044B1D8002490B7813430B7070BDA1430040004100400241004001400040024000407222084B1A70202294
:401DC000A3F580731A7006225F3B1A70472210331A70002203F251131A7070478865004010B500F005F904460B4A137843F020031370A2F58072137843F01003137002F5D9
:401E00008172137843F01003137000F055F8204600F0F2F810BD00BF9865004008B5054B1B7823B9FFF7C8FF0122024B1A70FFF7D7FF08BDF081FF1F084B1B78DBB213F04C
:401E4000200F06D0064A1078C0B213F01E0F02D17047002070470020704700BF6864004048650040044B1B7813F0200F01D0012070470020704700BF68640040034B1B78B3
:401E800013F0040FFAD1024B187070476A6500404A65004038B5074B1B782BB938BDFFF7EDFF0134A4B201E005460024285D0028F5D138BDF081FF1F054A137843F0020346
:401EC00013701032137843F002031370704700BFA243004008B500F0E9F800F0F1F808BD08B5FFF7F7FF08BD30B583B00C468DF8070000F025F9B4F5006F52D22509A4EBA5
:401F00000514A4B200F0C8F900284CD101230DF107022146402000F03FF9044607282FD1234B1B7813F0020FFAD0214B1B7813F0020F06D01E4B1B789B0805D04FF0FF34FB
:401F400003E04FF0FF3400E00024E4B9194A537812782946402000F05BF9072816D1144B1B7813F0020FFAD0114B1B7813F0020F0FD00F4B1B789B0810D04FF0FF340DE009
:401F8000012809D10AE04FF0FF3407E04FF0FF3404E04FF0FF3401E04FF0FF3400F0A2F902E0012400E00424204603B030BD00BF224700403486FF1F38B5044600F018F8A9
:401FC000054600F0A7F804F1804000F500400478E4B200F0ADF8284600F00EF8204638BD0230800803D000BF01380046FCD17047EFF3108072B6704780F31088704700BF96
:4020000010B500F09DF800F047F910BB012000F025F9072818D102210F4800F0A3F802280AD102E00120FFF7DFF90C4B1B7813F0020FF7D0002409E0084B1B7813F0020F6D
:40204000E9D04FF0FF3401E04FF0FF3400F04AF900E00424204610BD3486FF1F2247004010B500F06DF800F017F9D0B900F056F90446072812D102E00120FFF7B5F90A4BB9
:402080001B7813F0020FF7D0074B1B7813F0020F04D0054B1B789B0800D1002400F022F900E00424204610BD2247004008B5FFF7D7FF034610B9FFF7A3FF0346184608BDDC
:4020C00008B5FFF795FF0F4A137843F0080313701032137843F008031370C8220A4B1A700A4A137843F0100313701032137843F010031370064B1B7813F0200FFAD0FFF789
:402100007BFF08BDA043004001470040AC43004000470040054A137843F001031370034B1B7813F0020FFAD0704700BF02470040024A137803F0FE0313707047024700401F
:4021400008B5FFF755FF064A137843F0080313701032137843F008031370FFF74DFF08BDA043004070B506460D4600240CE00120FFF73AF9064B1B7813F0010FF7D0054BD8
:402180001B7833550134E4B2AC42F3D3204670BD224700402047004030B43E2801D81F2B03D93F2827D90F2B27D8174C247814F0020F24D0154CB6252570D425257001252C
:4021C00025700234247814F0020F1AD10F4C2070C1F300202070C9B22170591EC9B22170002104E0545C094804700131C9B29942F8D3072006E0012004E0012002E0042094
:4022000000E0092030BC7047224700402047004030B4104C247814F0020F15D00E4CB6252570D8252570052525700234247814F0020F0BD1084C2070080A2070C9B221705C
:4022400022702370072002E0042000E0092030BC704700BF22470040204700400C4B1B7813F0020F0FD00B4BB6221A70E1221A700E221A7002331B7813F0020F05D1054B73
:40228000187007207047042070470920704700BF224700402047004010B5FFF7A9FE0F4B1B78A3B901220D4B1A700D4B1B6813F0010F0ED00A4A136823F00103136000BF5A
:4022C00000BF00BF0122054B5A60002402E0042400E00024FFF790FE204610BDF481FF1F0400084008B5FFF783FE0A4B00221A705B68012B0AD1084A136843F001031360F5
:4023000000BF00BF00BF0022024B5A60FFF774FE08BD00BFF481FF1F04000840074B1B7813F0020F08D0064BB6221A70E0221A700D221A7007207047042070472247004041
:4023400020470040F0B58BB0054600F049F8224B044693F90060731C0AD02946284601F02BF8074620B90021284600F0FDFF10B920460BB0F0BD194A01232846019200930A
:40238000089700F0E7F90022CDE90401CDE9020100239EB11046194600F05AFB022ECDE906010DD101F064F821230360089B6BB9DDE9060100F0DCFC0BB0F0BDCDE906234A
:4023C000684600F061F80028F0D1EBE701F050F8089B0360ECE700BF0681FF1FF83E000020F00042B2F1FF4F70B504462ED262B3002803463DDBB2F5000F4FEAE0502CD311
:40240000002631467F38C3F31603C20743F4000348BF5B0040105B0019244FF080728D189D4202DC5B1BA9181644013C4FEA43034FEA5202F3D113B106F001031E44761055
:4024400006F17C5606EBC05070BD70BD014600F0EDFD214600F0E2FC70BD14F4000201D00EE00A465B001C0202F10101F9D5801AC6E7014600F0D0FC014600F08BFE70BD29
:402480004FF0FF32F3E700BF0020704781F0004102E000BF83F0004330B54FEA41044FEA430594EA050F08BF90EA020F1FBF54EA000C55EA020C7FEA645C7FEA655C00F0B3
:4024C000E2804FEA5454D4EB5555B8BF6D420CDD2C4480EA020281EA030382EA000083EA010180EA020281EA0303362D88BF30BD11F0004F4FEA01314FF4801C4CEA11316F
:4025000002D0404261EB410113F0004F4FEA03334CEA133302D0524263EB430394EA050F00F0A780A4F10104D5F1200E0DDB02FA0EFC22FA05F2801841F1000103FA0EF282
:40254000801843FA05F359410EE0A5F120050EF1200E012A03FA0EFC28BF4CF0020C43FA05F3C01851EBE37101F0004507D54FF0000EDCF1000C7EEB00006EEB0101B1F57C
:40258000801F1BD3B1F5001F0CD349085FEA30004FEA3C0C04F101044FEA445212F5800F80F09A80BCF1004F08BF5FEA500C50F1000041EB045141EA050130BD5FEA4C0CCD
:4025C000404141EB010111F4801FA4F10104E9D191F0000F04BF01460020B1FA81F308BF2033A3F10B03B3F120020CDA0C3208DD02F1140CC2F10C0201FA0CF021FA02F1F7
:402600000CE002F11402D8BFC2F1200C01FA02F120FA0CFCDCBF41EA0C019040E41AA2BF01EB0451294330BD6FEA04041F3C1CDA0C340EDC04F11404C4F1200220FA04F0B5
:4026400001FA02F340EA030021FA04F345EA030130BDC4F10C04C4F1200220FA02F001FA04F340EA0300294630BD21FA04F0294630BD94F0000F83F4801306BF81F4801115
:402680000134013D4EE77FEA645C18BF7FEA655C29D094EA050F08BF90EA020F05D054EA000C04BF1946104630BD91EA030F1EBF0021002030BD5FEA545C05D140004941B6
:4026C00028BF41F0004130BD14F580043CBF01F5801130BD01F0004545F0FE4141F470014FF0000030BD7FEA645C1ABF194610467FEA655C1CBF0B46024650EA013406BF93
:4027000052EA033591EA030F41F4002130BD00BF90F0000F04BF0021704730B54FF4806404F132044FF000054FF0000150E700BF90F0000F04BF0021704730B54FF4806485
:4027400004F1320410F0004548BF40424FF000013EE700BF42004FEAE2014FEA31014FEA02701FBF12F07F4393F07F4F81F06051704792F0000F14BF93F07F4F704730B5AB
:402780004FF4607401F0004521F0004120E700BF50EA010208BF704730B54FF000050AE050EA010208BF704730B511F0004502D5404261EB41014FF4806404F132045FEA7E
:4027C000915C3FF4DCAE4FF003025FEADC0C18BF03325FEADC0C18BF033202EBDC02C2F1200300FA03FC20FA02F001FA03FE40EA0E0021FA02F11444C1E600BF70B54FF067
:40280000FF0C4CF4E06C1CEA11541DBF1CEA135594EA0C0F95EA0C0F00F0DEF82C4481EA030621EA4C5123EA4C5350EA013518BF52EA033541F4801143F4801338D0A0FB2D
:4028400002CE4FF00005E1FB02E506F00042E0FB03E54FF00006E1FB03569CF0000F18BF4EF0010EA4F1FF04B6F5007F64F5407404D25FEA4E0E6D4146EB060642EAC62105
:4028800041EA55514FEAC52040EA5E504FEACE2EB4F1FD0C88BFBCF5E06F1ED8BEF1004F08BF5FEA500E50F1000041EB045170BD06F0004646EA010140EA020081EA0301CD
:4028C000B4EB5C04C2BFD4EB0C0541EA045170BD41F480114FF0000E013C00F3AB8014F1360FDEBF002001F0004170BDC4F10004203C35DA0C341BDC04F11404C4F12005C5
:4029000000FA05F320FA04F001FA05F240EA020001F0004221F0004110EBD37021FA04F642EB06015EEA430E08BF20EAD37070BDC4F10C04C4F1200500FA04F320FA05F0F4
:4029400001FA04F240EA020001F0004110EBD37041F100015EEA430E08BF20EAD37070BDC4F1200500FA05F24EEA020E20FA04F301FA05F243EA020321FA04F001F0004134
:4029800021FA04F220EA020000EBD3705EEA430E08BF20EAD37070BD94F0000F0FD101F00046400041EB010111F4801F08BF013CF7D041EA060195F0000F18BF704703F024
:4029C0000046520043EB030313F4801F08BF013DF7D043EA0603704794EA0C0F0CEA135518BF95EA0C0F0CD050EA410618BF52EA4306D1D181EA030101F000414FF0000009
:402A000070BD50EA410606BF1046194652EA430619D094EA0C0F02D150EA013613D195EA0C0F05D152EA03361CBF104619460AD181EA030101F0004141F0FE4141F4700138
:402A40004FF0000070BD41F0FE4141F4780170BD70B54FF0FF0C4CF4E06C1CEA11541DBF1CEA135594EA0C0F95EA0C0F00F0A7F8A4EB050481EA030E52EA03354FEA01313A
:402A800000F088804FEA03334FF0805545EA131343EA12634FEA022245EA111545EA10654FEA00260EF000419D4208BF964244F1FD0404F5407402D25B084FEA3202B61ADB
:402AC00065EB03055B084FEA32024FF480104FF4002CB6EB020E75EB030E22BFB61A754640EA0C005B084FEA3202B6EB020E75EB030E22BFB61A754640EA5C005B084FEA28
:402B00003202B6EB020E75EB030E22BFB61A754640EA9C005B084FEA3202B6EB020E75EB030E22BFB61A754640EADC0055EA060E18D04FEA051545EA16754FEA06164FEAD3
:402B4000C30343EA52734FEAC2025FEA1C1CC0D111F4801F0BD141EA00014FF000004FF0004CB6E711F4801F04BF01430020B4F1FD0C88BFBCF5E06F3FF6AFAEB5EB030C7A
:402B800004BFB6EB020C5FEA500C50F1000041EB045170BD0EF0004E4EEA113114EB5C04C2BFD4EB0C0541EA045170BD41F480114FF0000E013C90E645EA060E8DE60CEA7A
:402BC000135594EA0C0F08BF95EA0C0F3FF43BAF94EA0C0F0AD150EA01347FF434AF95EA0C0F7FF425AF104619462CE795EA0C0F06D152EA03353FF4FDAE1046194622E7F3
:402C000050EA410618BF52EA43067FF4C5AE50EA41047FF40DAF52EA43057FF4EBAE12E74FF0FF3C06E000BF4FF0010C02E000BF4FF0010C4DF804CD4FEA410C7FEA6C5C75
:402C40004FEA430C18BF7FEA6C5C1BD001B050EA410C0CBF52EA430C91EA030F02BF90EA020F0020704710F1000F91EA030F58BF994208BF90422CBFD8176FEAE37040F0BD
:402C8000010070474FEA410C7FEA6C5C02D150EA013C07D14FEA430C7FEA6C5CD6D152EA033CD3D05DF8040B704700BF8446104662468C461946634600E000BF01B5FFF73E
:402CC000B7FF002848BF10F1000F01BD4DF808EDFFF7F4FF0CBF012000205DF808FB00BF4DF808EDFFF7EAFF34BF012000205DF808FB00BF4DF808EDFFF7E0FF94BF0120F4
:402D000000205DF808FB00BF4DF808EDFFF7CEFF94BF012000205DF808FB00BF4DF808EDFFF7C4FF34BF012000205DF808FB00BF4A0011D212F5001211D20DD56FF478731D
:402D4000B3EB62520ED44FEAC12343F0004343EA505323FA02F070474FF00000704750EA013002D14FF0FF3070474FF0000070474FEA4102B2F1E04324BFB3F5001CDCF1F1
:402D8000FE5C0DD901F0004C4FEAC0024CEA5070B2F1004F40EB830008BF20F00100704711F0804F21D113F13872BCBF01F00040704741F480114FEA5252C2F11802C2F180
:402DC000200C10FA0CF320FA02F018BF40F001004FEAC1234FEAD32303FA0CFC40EA0C0023FA02F34FEA4303CCE77FEA625307D150EA01331EBF4FF0FE4040F440007047D6
:402E000001F0004040F0FE4040F40000704700BF80F0004002E000BF81F0004142001FBF5FEA410392EA030F7FEA226C7FEA236C6AD04FEA1262D2EB1363C1BFD218414017
:402E400048404140B8BF5B42192B88BF704710F0004F40F4000020F07F4018BF404211F0004F41F4000121F07F4118BF494292EA030F3FD0A2F1010241FA03FC10EB0C001B
:402E8000C3F1200301FA03F100F0004302D5494260EB4000B0F5000F13D3B0F1807F06D340084FEA310102F10102FE2A51D2B1F1004F40EBC25008BF20F0010040EA0300F2
:402EC0007047490040EB000010F4000FA2F10102EDD1B0FA80FCACF1080CB2EB0C0200FA0CF0AABF00EBC25052421843BCBFD0401843704792F0000F81F4000106BF80F496
:402F000000000132013BB5E74FEA41037FEA226C18BF7FEA236C21D092EA030F04D092F0000F08BF0846704790EA010F1CBF0020704712F07F4F04D1400028BF40F000401B
:402F4000704712F100723CBF00F50000704700F0004343F0FE4040F4000070477FEA226216BF08467FEA23630146420206BF5FEA412390EA010F40F4800070474FF00003BC
:402F800004E000BF10F0004348BF40425FEA000C08BF704743F0964301464FF000001CE050EA010208BF70474FF000030AE000BF50EA010208BF704711F0004302D5404243
:402FC00061EB41015FEA010C02BF84460146002043F0B64308BFA3F18053A3F50003BCFA8CF2083AA3EBC25310DB01FA02FC634400FA02FCC2F12002BCF1004F20FA02F28B
:4030000043EB020008BF20F00100704702F1200201FA02FCC2F1200250EA4C0021FA02F243EB020008BF20EADC7070474FF0FF0C1CEAD0521EBF1CEAD15392EA0C0F93EAC8
:403040000C0F6FD01A4480EA010C400218BF5FEA41211ED04FF0006343EA501043EA5111A0FB01310CF00040B1F5000F3EBF490041EAD3715B0040EA010062F17F02FD2ABD
:403080001DD8B3F1004F40EBC25008BF20F00100704790F0000F0CF0004C08BF49024CEA502040EA51207F3AC2BFD2F1FF0340EAC250704740F400004FF00003013A5DDC56
:4030C00012F1190FDCBF00F000407047C2F10002410021FA02F1C2F1200200FA02FC5FEA310040F1000053EA4C0308BF20EADC70704792F0000F00F0004C02BF400010F475
:40310000000F013AF9D040EA0C0093F0000F01F0004C02BF490011F4000F013BF9D041EA0C018FE70CEAD15392EA0C0F18BF93EA0C0F0AD030F0004C18BF31F0004CD8D153
:4031400080EA010000F00040704790F0000F17BF90F0004F084691F0000F91F0004F14D092EA0C0F01D142020FD193EA0C0F03D14B0218BF084608D180EA010000F0004058
:4031800040F0FE4040F40000704740F0FE4040F4400070474FF0FF0C1CEAD0521EBF1CEAD15392EA0C0F93EA0C0F69D0A2EB030280EA010C49024FEA402037D04FF0805336
:4031C00043EA111143EA10130CF000408B4238BF5B0042F17D024FF4000C8B4224BF5B1A40EA0C00B3EB510F24BFA3EB510340EA5C00B3EB910F24BFA3EB910340EA9C0027
:40320000B3EBD10F24BFA3EBD10340EADC001B0118BF5FEA1C1CE0D1FD2A3FF650AF8B4240EBC25008BF20F0010070470CF0004C4CEA50207F32C2BFD2F1FF0340EAC2508B
:40324000704740F400004FF00003013A37E792F0000F00F0004C02BF400010F4000F013AF9D040EA0C0093F0000F01F0004C02BF490011F4000F013BF9D041EA0C0195E707
:403280000CEAD15392EA0C0F08D142027FF47DAF93EA0C0F7FF470AF084676E793EA0C0F04D14B023FF44CAF08466EE730F0004C18BF31F0004CCAD130F000427FF45CAF16
:4032C00031F000437FF43CAF5FE700BF4FF0FF3C06E000BF4FF0010C02E000BF4FF0010C4DF804CD4FEA40024FEA41037FEA226C18BF7FEA236C11D001B052EA530C18BFD7
:4033000090EA010F58BFB2EB030088BFC81738BF6FEAE17018BF40F0010070477FEA226C02D15FEA402C05D17FEA236CE4D15FEA412CE1D05DF8040B704700BF844608466B
:403340006146FFE70FB5FFF7C9FF002848BF10F1000F0FBD4DF808EDFFF7F4FF0CBF012000205DF808FB00BF4DF808EDFFF7EAFF34BF012000205DF808FB00BF4DF808ED4F
:40338000FFF7E0FF94BF012000205DF808FB00BF4DF808EDFFF7D2FF94BF012000205DF808FB00BF4DF808EDFFF7C8FF34BF012000205DF808FB00BF4FEA40024FEA4103A7
:4033C0007FEA226C02D15FEA402C08D17FEA236C02D15FEA412C02D14FF0000070474FF0010070474FEA4002B2F1FE4F0FD34FF09E03B3EB12620DD94FEA002343F000433D
:4034000010F0004F23FA02F018BF404270474FF00000704712F1610F01D1420205D110F0004008BF6FF0004070474FF00000704742000ED2B2F1FE4F0BD34FF09E03B3EB08
:40344000126209D44FEA002343F0004323FA02F070474FF00000704712F1610F01D1420202D14FF0FF3070474FF00000704700BF014B1868704700BF6881FF1F0E4B70B570
:403480001E460E4C0025E41AA410A54204D056F8253098470135F8E700F04EFD084B094C1E46E41AA4100025A54204D056F8253098470135F8E770BD443F0000443F000082
:4034C000443F00004C3F000010B5431E0A44914204D011F8014B03F8014FF8E710BD03460244934202D003F8011BFAE7704700000EB400B54FF402719CB0ADF814106FF0D1
:403500000041049107914FF6FF711DAB02900690084853F8042BADF81610006802A9019300F064F8029B00221A701CB05DF804EB03B070476881FF1F2DE9F0478E6882461B
:403540009E420C46914698463ED88A8912F4906F3AD02568096902236F1A656905EB450595FBF3F57B1C43449D4238BF1D4653050FD5294600F040FB064698B13A46216933
:40358000FFF7A2FFA38923F4906343F08003A38113E02A4600F08EFB064670B92169504600F0DEFA0C23CAF80030A3894FF0FF3043F04003A381BDE8F08726613E4426602B
:4035C00046466561ED1BA560464528BF464649463246206800F0A8FAA36800209B1BA36023681E442660BDE8F08700002DE9F04F9DB003938B8980461C060D4616460DD515
:403600000B695BB9402100F0F7FA2860286118B90C23C8F80030CDE040236B610023099320238DF82930DFF89CB130238DF82A3037463C4614F8013B1BB9B7EB060910D001
:4036400003E0252BF9D02746F3E74B46324629464046FFF771FF013000F0A780099B4B4409933B78002B00F0A08000234FF0FF3204930793059206938DF853301A930126CE
:40368000052221784E4800F041FA671C049B38B14B4A3C46801A06FA00F018430490EFE7D90644BF20228DF853201A0744BF2B228DF8532022782A2A03D0079A00210A20E6
:4036C0000BE0039A111D12680391002A10DA524243F00200079204900BE027463B780134303B092B03D800FB02320121F5E701B107923B782E2B1ED17B782A2B0AD1039B0E
:4037000002371A1D1B680392002BB8BF4FF0FF33059310E0002319460593781C0A2407463A780130303A092A03D804FB01210123F5E703B1059103223978224800F0E6F968
:4037400040B14023CBEB000003FA00F0049B013718430490397806221B487E1C8DF8281000F0D4F988B1194B33B9039B073323F007030833039314E003AB00932A46144BE9
:4037800004A94046AFF3008007E003AB00932A460F4B04A9404600F093F8B0F1FF3F824603D0099B5344099342E7AB895B0601D4099801E04FF0FF301DB0BDE8F08F00BF90
:4037C000023F0000083F00000C3F000000000000393500002DE9F04791461F460A698B6806469342B8BF1346C9F8003091F843200C46DDF8208012B10133C9F80030236891
:40380000990642BFD9F800300233C9F80030256815F0060510D104F1190A07E00123524639463046C04701301AD00135E368D9F800209B1A9D42F1DB94F8433022680033E3
:4038400018BF012392060FD5E118302081F843005A1C94F845102244023382F8431003E04FF0FF30BDE8F08704F1430239463046C0470130F4D02268D9F80050E36802F08D
:403880000602042A08BF5D1B2269A3680CBF25EAE57500259342C4BF9B1AED184FF000091A344D4509D00123224639463046C0470130D5D009F10109F3E70020BDE8F08719
:4038C0002DE9F04317460A7E85B06E2A984606460C460C9B01F1430E00F0AE8011D8632A22D009D8002A00F0BB80582A40F0CA8081F84520834955E0642A1ED0692A1CD0D5
:40390000C0E0732A00F0B08009D86F2A2ED0702A40F0B8800A6842F020020A603EE0752A24D0782A3AD0ADE01A6801F14205111D1960136884F84230A8E021681A6811F037
:40394000800F02D0111D196008E011F0400F02F10401196002D0B2F9003000E01368002B3CDA2D225B4284F8432037E021681A6811F0800F02D0111D196007E011F0400F20
:4039800002F10401196001D0138800E01368227E5C496F2A14BF0A2208221BE078225A4984F845202268186812F0800F00F104051D6003D1550601D5038800E00368D007EB
:4039C00044BF42F0200222601BB9226822F0200222601022002084F8430001E049490A226568002DA56008DB206820F0040020602BB9002D7DD175460CE0002B79D07546F7
:403A0000B3FBF2F002FB1033CB5C05F8013D03460028F5D1082A0BD12368DA0708D5236962689A42DEBF302305F8013C05F1FF35C5EB0E0323612EE008681A6810F0800F6C
:403A4000496903D0101D1860136808E010F0400F02F104001860136801D0198000E0196000232361754616E01A68111D1960156800216268284600F049F808B1401B606061
:403A8000636804E004F1420584F8422001232361002384F84330CDF800803B4603AA21463046FFF797FE013002D14FF0FF3026E023692A4639463046C0470130F5D02368B7
:403AC0009B0710D5002504F1190907E001234A4639463046C0470130E7D00135E368039A9B1A9D42F2DBE068039B9842B8BF184605E00B7804F1420584F842308AE705B0B8
:403B0000BDE8F083133F0000243F000010B5C9B202449042034605D01C7801308C42F8D1184610BD002010BD884210B501EB020301D8421E0BE09842FBD28118D21AD342E9
:403B400004D013F8014D01F8014DF8E710BD994204D011F8014B02F8014FF8E710BD000038B50546002944D051F8043C0C1F002BB8BFE41800F0D4F81E4A1368114613B9A2
:403B80006360146030E0A3420DD92268A018834201BF18685B681218226063600C6023E0A24203D813465A68002AF9D118681918A1420BD12168014458188242196013D16E
:403BC00010685268014419605A600DE002D90C232B6009E021686018824201BF106852680918216062605C602846BDE8384000F098B838BD0082FF1F70B5CD1C25F003054E
:403C000008350C2D38BF0C25002D064601DBA94202D90C23336046E000F082F8234B1C681A462146A1B10B685B1B0ED40B2B03D90B60CC18CD501EE08C420BBF63684B6811
:403C40001360636018BF0C4615E00C464968E9E7174C23681BB9304600F052F820602946304600F04DF8431C18D0C41C24F00304A0420DD12560304600F053F804F10B00D9
:403C8000231D20F00700C31A0ED05A42E25070BD211A304600F034F80130EBD10C233360304600F03EF8002070BD00BF0082FF1FFC81FF1FF8B5074615460E4621B91146BE
:403CC000BDE8F840FFF798BF1AB9FFF749FF2846F8BD00F027F885420ED929463846FFF78BFF044650B131462A46FFF7EDFB31463846FFF735FF01E03046F8BD2046F8BDE6
:403D000038B5064C0023054608462360FDF776F8431C02D1236803B12B6038BD3886FF1F7047704751F8040C0028BEBF091851F8043CC01804387047000000005374617459
:403D400065206368616E6765643A2025640A0D0053657475702072756E6E696E670A0D00496E69742073746174653A2025640A0D00000000496E697420736F757263653A63
:403D80002025640A0D000000536574757020646F6E652E20456E61626C696E6720476C6F62616C2049540A0D000000005465726D696E616C20636F6E74726F6C20656E6108
:403DC000626C65640A0D00005465726D696E616C20636F6E74726F6C2064697361626C65640A0D004368616E676520746F204379636C650A0D0000004368616E67652074FF
:403E00006F20526564477265656E426C75650A0D000000004368616E676520746F20506F6C6963650A0D00004368616E676520746F20417564696F0A0D0000004368616E80
:403E4000676520746F206E657874206C6967687473686F770A0D000053776974636820746F206A61636B0A0D0000000053776974636820746F206D69630A0D0053776974B3
:403E8000636820696E7075740A0D0000556E6B6E6F776E20636F6D6D616E640A0D0000000D510040005B00403D510040005B004020204040035B00402443004040000000E3
:403EC000004F0040300040510040300000000140001000140140000800400140000A004C014000020050014020000000605200409004004806000000737172746600000085
:403F00004300232D302B2000686C4C006566674546470030313233343536373839414243444546003031323334353637383961626364656600000000F8B500BFF8BC08BC67
:403F40009E4670474D000000790E0000F8B500BFF8BC08BC9E46704729000000703F0000C880FF1FA8000000D00400000000000000000000FF000000010101010101FF0095
:403F80000101010101010000C2A20000D0070000140000004086FF1FFF0000000000E02EC05D00001800000000366E0101FF010000000000000000000000000000000000E0
:403FC00000000000000000000000000000000000003F0000000000000000000000000000000000000000000000000000000000000000000000000000000000000000000082
:40400000000000000000000000000000000000000881FF1F0000000000000000000000000000000000000000000000000000000000000000000000000000000000000000D9
:404040000000000000000000000000000000000000000000000000000000000000000000000000000000000000000000000000000000000000000000000000000000000040
:404080000000000000000000000000000000000000000000000000000000000000000000000000000000000000000000000000000000000000000000000000000000000000
:4040C00000000000000000000000000000000000000000000000000000000000000000000000000000000000000000000000000000000000000000000000000000000000C0
:40410000000000000000000000000000000000000000000000000000000000000000000000000000000000000000000000000000000000000000000000000000000000007F
:020000040003F7
:0200000480007A
:40000000084F0040015200400164004002650040010501405408014031090140030B0140040C0140020D01400115014002170140501801404B1901404E1A01403F1B0140B8
:4000400002400140034101400F42014007430140024401400345014005460140024701400548014001490140074C01400C4D0140045001400151014001300A4B0D30164BA2
:400080001930224B25202E4B1120883888728A0FEA0E0202050D0602070208010B02110D1302150F190C1A041E042201250429032A012B0C2C012D08320434013501360242
:4000C000370E38203B803E443F105418580459045B045C115D105F0184D08501860C870688208A038C9C8D0C8E028F039409961097039B0C9CCC9E11A014A101A30EA410B2
:40010000A708AA40B0C0B10FB21FB420B802BB02BE11C004C504C9FFCA07CBFFCC40CD20CEF0CF05D008D804D904DA04DC11DD01DF01E040E1A8E240E320009406400714B3
:4001400008400A210D200F021088122016081741185019201D601F042080234026102701284029042C202D802F0830083210372538043B403C083D203E084040481049048E
:400180004A2050085F0165406708C077C2C5C4DECA73CCE6CE6AD001D680D830AB08AF28B440392A3F1559045F0124402728EC10E810EC08000C0107040405080602080885
:4001C00009080A020D08100C1101120113061507160C19061D04220C240C25022A0C2B012D062F01300C3307350836033E404056410342024401460C47E0482449FF4AFF68
:400200004BFF4C624DA04EF04F41500C56025711580459045A045B045C115D115F016640670269106A306B106D106E106F12850186058A028C068E019101950296069E0301
:40024000AA01AF01B503B607B920BA80D804D904DC11DF0100A403020420050807400A210E800F1010081510168017051A031D801F01211022102408251027102B022C20DF
:400280002D102E803008320134023580372438043D013E544580471448044B104C044D104F40564057015E2067036E547420758076017728880289018B589404962197017E
:4002C0009B019D809E409F74A058A210A4A4A510A709AD20C077C235C472CA78CCF3CEF2D070D230D620E810EC0A04020503070C08010B080D030E020F04170519031B041E
:400300001C0226022A022D0A2F0430023201350F3B203E0540264101450C460B470E481549FF4AFF4BFF4EF04F44500C5401580459045A045B045C105D115F0166C06A40C1
:400340006B028067810A821883318418851F8840891F8C109060947F981C99149A629B099D019E049F06A07CA201A408AA63AC24B120B278B318B41FB707BA28BB20D804E3
:40038000D904DC11DF010084018002080420060107600A010EAA102815101602170919041A401C081E081F0820042420265127142980303836403710380439A03E1640041D
:4003C00041404201482850805208581059055A4081018208834889088A029130921594249A019B299D089F44A048A484A640A708C0F7C2F1C4F6CA08CC36CEEED00CD20439
:40040000D60FEC103210CC108D408E10962050045B015F0863806780938095409B09A340AB48AF41D420D6C0D8C0EA70114018181F0494089540C440C6707C20DE01608043
:400440009C20D80245089C80B420D001E8029C80A5082510AF04B410C820EC10B51093409902A508AD02AF40B480E808104073407502884093409902B508C408DC01DE04FB
:40048000E201EC0800020C0210021C02000200001091000040000000020000020000000020000000800040919100910000000000010000252400000000000000000B0B004B
:4004C0000000000000222200200000000000000000005000080018010000000000000000000000000000000000000000000000000000000000000000000000000000000027
:4005000000000000000000000000000000000000000000000000000000000000000000000000000000000000000000000000000000000000000000000000000000000000BB
:40054000000000000000000000000000000000000000000000000000000000000000000000000000000000000000000000000000000000000000000000000000000000007B
:40058000000000000000000000000000000000000000000000000000000000000000000000000000000000000000000000000000000000000000000000000000000000003B
:4005C00000000000000000000000000000000000000000000000000000000000000000000000000000000000000000000000000000000000000000000000000000000000FB
:0200000490006A
:0400000000004005B7
:0200000490105A
:04000000BC90ACAF55
:0200000490303A
:020000002AA72D
:0200000490402A
:4000000000000000000000000000000000000000000000000000000000000000000000000000000000000000000000000000000000000000000000000000000000000000C0
:400040000000000000000000000000000000000000000000000000000000000000000000000000000000000000000000000000000000000000000000000000000000000080
:400080000000000000000000000000000000000000000000000000000000000000000000000000000000000000000000000000000000000000000000000000000000000040
:4000C0000000000000000000000000000000000000000000000000000000000000000000000000000000000000000000000000000000000000000000000000000000000000
:0200000490501A
:0C00000000012E16106900012E2F3B108D
:00000001FF